{
  "address": "0x32e92368045c116e36A4E03714236E09e111c632",
  "abi": [
    {
      "inputs": [
        {
          "internalType": "address",
          "name": "_marketplaceAddress",
          "type": "address"
        }
      ],
      "stateMutability": "nonpayable",
      "type": "constructor"
    },
    {
      "anonymous": false,
      "inputs": [
        {
          "indexed": true,
          "internalType": "address",
          "name": "owner",
          "type": "address"
        },
        {
          "indexed": true,
          "internalType": "address",
          "name": "approved",
          "type": "address"
        },
        {
          "indexed": true,
          "internalType": "uint256",
          "name": "tokenId",
          "type": "uint256"
        }
      ],
      "name": "Approval",
      "type": "event"
    },
    {
      "anonymous": false,
      "inputs": [
        {
          "indexed": true,
          "internalType": "address",
          "name": "owner",
          "type": "address"
        },
        {
          "indexed": true,
          "internalType": "address",
          "name": "operator",
          "type": "address"
        },
        {
          "indexed": false,
          "internalType": "bool",
          "name": "approved",
          "type": "bool"
        }
      ],
      "name": "ApprovalForAll",
      "type": "event"
    },
    {
      "anonymous": false,
      "inputs": [
        {
          "indexed": true,
          "internalType": "address",
          "name": "previousOwner",
          "type": "address"
        },
        {
          "indexed": true,
          "internalType": "address",
          "name": "newOwner",
          "type": "address"
        }
      ],
      "name": "OwnershipTransferred",
      "type": "event"
    },
    {
      "anonymous": false,
      "inputs": [
        {
          "indexed": true,
          "internalType": "uint256",
          "name": "tokenId",
          "type": "uint256"
        },
        {
          "indexed": true,
          "internalType": "address",
          "name": "owner",
          "type": "address"
        },
        {
          "indexed": false,
          "internalType": "string",
          "name": "name",
          "type": "string"
        },
        {
          "indexed": false,
          "internalType": "uint256",
          "name": "price",
          "type": "uint256"
        },
        {
          "indexed": false,
          "internalType": "uint256",
          "name": "commission",
          "type": "uint256"
        }
      ],
      "name": "TicketMinted",
      "type": "event"
    },
    {
      "anonymous": false,
      "inputs": [
        {
          "indexed": true,
          "internalType": "address",
          "name": "from",
          "type": "address"
        },
        {
          "indexed": true,
          "internalType": "address",
          "name": "to",
          "type": "address"
        },
        {
          "indexed": true,
          "internalType": "uint256",
          "name": "tokenId",
          "type": "uint256"
        }
      ],
      "name": "Transfer",
      "type": "event"
    },
    {
      "inputs": [
        {
          "internalType": "address",
          "name": "to",
          "type": "address"
        },
        {
          "internalType": "uint256",
          "name": "tokenId",
          "type": "uint256"
        }
      ],
      "name": "approve",
      "outputs": [],
      "stateMutability": "nonpayable",
      "type": "function"
    },
    {
      "inputs": [
        {
          "internalType": "address",
          "name": "owner",
          "type": "address"
        }
      ],
      "name": "balanceOf",
      "outputs": [
        {
          "internalType": "uint256",
          "name": "",
          "type": "uint256"
        }
      ],
      "stateMutability": "view",
      "type": "function"
    },
    {
      "inputs": [
        {
          "internalType": "uint256",
          "name": "tokenId",
          "type": "uint256"
        }
      ],
      "name": "decreaseAvailableTickets",
      "outputs": [],
      "stateMutability": "nonpayable",
      "type": "function"
    },
    {
      "inputs": [
        {
          "internalType": "uint256",
          "name": "tokenId",
          "type": "uint256"
        }
      ],
      "name": "getApproved",
      "outputs": [
        {
          "internalType": "address",
          "name": "",
          "type": "address"
        }
      ],
      "stateMutability": "view",
      "type": "function"
    },
    {
      "inputs": [],
      "name": "getNextTokenId",
      "outputs": [
        {
          "internalType": "uint256",
          "name": "",
          "type": "uint256"
        }
      ],
      "stateMutability": "view",
      "type": "function"
    },
    {
      "inputs": [
        {
          "internalType": "address",
          "name": "owner",
          "type": "address"
        },
        {
          "internalType": "address",
          "name": "operator",
          "type": "address"
        }
      ],
      "name": "isApprovedForAll",
      "outputs": [
        {
          "internalType": "bool",
          "name": "",
          "type": "bool"
        }
      ],
      "stateMutability": "view",
      "type": "function"
    },
    {
      "inputs": [],
      "name": "marketplaceAddress",
      "outputs": [
        {
          "internalType": "address",
          "name": "",
          "type": "address"
        }
      ],
      "stateMutability": "view",
      "type": "function"
    },
    {
      "inputs": [
        {
          "internalType": "string",
          "name": "name",
          "type": "string"
        },
        {
          "internalType": "uint256",
          "name": "price",
          "type": "uint256"
        },
        {
          "internalType": "uint256",
          "name": "commission",
          "type": "uint256"
        },
        {
          "internalType": "uint256",
          "name": "numberOfTokens",
          "type": "uint256"
        }
      ],
      "name": "mintTickets",
      "outputs": [],
      "stateMutability": "nonpayable",
      "type": "function"
    },
    {
      "inputs": [],
      "name": "name",
      "outputs": [
        {
          "internalType": "string",
          "name": "",
          "type": "string"
        }
      ],
      "stateMutability": "view",
      "type": "function"
    },
    {
      "inputs": [
        {
          "internalType": "uint256",
          "name": "",
          "type": "uint256"
        }
      ],
      "name": "numOfTickets",
      "outputs": [
        {
          "internalType": "uint256",
          "name": "",
          "type": "uint256"
        }
      ],
      "stateMutability": "view",
      "type": "function"
    },
    {
      "inputs": [],
      "name": "owner",
      "outputs": [
        {
          "internalType": "address",
          "name": "",
          "type": "address"
        }
      ],
      "stateMutability": "view",
      "type": "function"
    },
    {
      "inputs": [
        {
          "internalType": "uint256",
          "name": "tokenId",
          "type": "uint256"
        }
      ],
      "name": "ownerOf",
      "outputs": [
        {
          "internalType": "address",
          "name": "",
          "type": "address"
        }
      ],
      "stateMutability": "view",
      "type": "function"
    },
    {
      "inputs": [],
      "name": "renounceOwnership",
      "outputs": [],
      "stateMutability": "nonpayable",
      "type": "function"
    },
    {
      "inputs": [
        {
          "internalType": "uint256",
          "name": "tokenId",
          "type": "uint256"
        },
        {
          "internalType": "uint256",
          "name": "salePrice",
          "type": "uint256"
        }
      ],
      "name": "royaltyInfo",
      "outputs": [
        {
          "internalType": "address",
          "name": "receiver",
          "type": "address"
        },
        {
          "internalType": "uint256",
          "name": "royaltyAmount",
          "type": "uint256"
        }
      ],
      "stateMutability": "view",
      "type": "function"
    },
    {
      "inputs": [
        {
          "internalType": "uint256",
          "name": "",
          "type": "uint256"
        }
      ],
      "name": "royaltyReceivers",
      "outputs": [
        {
          "internalType": "address",
          "name": "",
          "type": "address"
        }
      ],
      "stateMutability": "view",
      "type": "function"
    },
    {
      "inputs": [
        {
          "internalType": "address",
          "name": "from",
          "type": "address"
        },
        {
          "internalType": "address",
          "name": "to",
          "type": "address"
        },
        {
          "internalType": "uint256",
          "name": "tokenId",
          "type": "uint256"
        }
      ],
      "name": "safeTransferFrom",
      "outputs": [],
      "stateMutability": "nonpayable",
      "type": "function"
    },
    {
      "inputs": [
        {
          "internalType": "address",
          "name": "from",
          "type": "address"
        },
        {
          "internalType": "address",
          "name": "to",
          "type": "address"
        },
        {
          "internalType": "uint256",
          "name": "tokenId",
          "type": "uint256"
        },
        {
          "internalType": "bytes",
          "name": "data",
          "type": "bytes"
        }
      ],
      "name": "safeTransferFrom",
      "outputs": [],
      "stateMutability": "nonpayable",
      "type": "function"
    },
    {
      "inputs": [
        {
          "internalType": "address",
          "name": "operator",
          "type": "address"
        },
        {
          "internalType": "bool",
          "name": "approved",
          "type": "bool"
        }
      ],
      "name": "setApprovalForAll",
      "outputs": [],
      "stateMutability": "nonpayable",
      "type": "function"
    },
    {
      "inputs": [
        {
          "internalType": "string",
          "name": "newBaseURI",
          "type": "string"
        }
      ],
      "name": "setBaseURI",
      "outputs": [],
      "stateMutability": "nonpayable",
      "type": "function"
    },
    {
      "inputs": [
        {
          "internalType": "address",
          "name": "_marketplaceAddress",
          "type": "address"
        }
      ],
      "name": "setMarketplaceAddress",
      "outputs": [],
      "stateMutability": "nonpayable",
      "type": "function"
    },
    {
      "inputs": [
        {
          "internalType": "uint256",
          "name": "tokenId",
          "type": "uint256"
        },
        {
          "internalType": "uint256",
          "name": "commission",
          "type": "uint256"
        }
      ],
      "name": "setTicketCommission",
      "outputs": [],
      "stateMutability": "nonpayable",
      "type": "function"
    },
    {
      "inputs": [
        {
          "internalType": "uint256",
          "name": "tokenId",
          "type": "uint256"
        },
        {
          "internalType": "string",
          "name": "name",
          "type": "string"
        }
      ],
      "name": "setTicketName",
      "outputs": [],
      "stateMutability": "nonpayable",
      "type": "function"
    },
    {
      "inputs": [
        {
          "internalType": "uint256",
          "name": "tokenId",
          "type": "uint256"
        },
        {
          "internalType": "uint256",
          "name": "price",
          "type": "uint256"
        }
      ],
      "name": "setTicketPrice",
      "outputs": [],
      "stateMutability": "nonpayable",
      "type": "function"
    },
    {
      "inputs": [
        {
          "internalType": "bytes4",
          "name": "interfaceId",
          "type": "bytes4"
        }
      ],
      "name": "supportsInterface",
      "outputs": [
        {
          "internalType": "bool",
          "name": "",
          "type": "bool"
        }
      ],
      "stateMutability": "view",
      "type": "function"
    },
    {
      "inputs": [],
      "name": "symbol",
      "outputs": [
        {
          "internalType": "string",
          "name": "",
          "type": "string"
        }
      ],
      "stateMutability": "view",
      "type": "function"
    },
    {
      "inputs": [
        {
          "internalType": "uint256",
          "name": "",
          "type": "uint256"
        }
      ],
      "name": "ticketCommissions",
      "outputs": [
        {
          "internalType": "uint256",
          "name": "",
          "type": "uint256"
        }
      ],
      "stateMutability": "view",
      "type": "function"
    },
    {
      "inputs": [
        {
          "internalType": "uint256",
          "name": "",
          "type": "uint256"
        }
      ],
      "name": "ticketNames",
      "outputs": [
        {
          "internalType": "string",
          "name": "",
          "type": "string"
        }
      ],
      "stateMutability": "view",
      "type": "function"
    },
    {
      "inputs": [
        {
          "internalType": "uint256",
          "name": "",
          "type": "uint256"
        }
      ],
      "name": "ticketPrices",
      "outputs": [
        {
          "internalType": "uint256",
          "name": "",
          "type": "uint256"
        }
      ],
      "stateMutability": "view",
      "type": "function"
    },
    {
      "inputs": [
        {
          "internalType": "uint256",
          "name": "tokenId",
          "type": "uint256"
        }
      ],
      "name": "tokenURI",
      "outputs": [
        {
          "internalType": "string",
          "name": "",
          "type": "string"
        }
      ],
      "stateMutability": "view",
      "type": "function"
    },
    {
      "inputs": [
        {
          "internalType": "address",
          "name": "from",
          "type": "address"
        },
        {
          "internalType": "address",
          "name": "to",
          "type": "address"
        },
        {
          "internalType": "uint256",
          "name": "tokenId",
          "type": "uint256"
        }
      ],
      "name": "transferFrom",
      "outputs": [],
      "stateMutability": "nonpayable",
      "type": "function"
    },
    {
      "inputs": [
        {
          "internalType": "address",
          "name": "newOwner",
          "type": "address"
        }
      ],
      "name": "transferOwnership",
      "outputs": [],
      "stateMutability": "nonpayable",
      "type": "function"
    }
  ],
  "transactionHash": "0xeae419f695b2e08931ecf1345c486b96406083941aeef716d575a71dbcdd730d",
  "args": [
    "0x0000000000000000000000000000000000000000"
  ],
  "numDeployments": 1,
  "solcInputHash": "c8ec677125a1cf2aec643dc315b8d5ed",
  "bytecode": "0x60806040526103e86008553480156200001757600080fd5b5060405162003c1f38038062003c1f83398181016040528101906200003d9190620002da565b6040518060400160405280600d81526020017f436f6e636572745469636b6574000000000000000000000000000000000000008152506040518060400160405280600381526020017f43544b00000000000000000000000000000000000000000000000000000000008152508160009080519060200190620000c192919062000213565b508060019080519060200190620000da92919062000213565b505050620000fd620000f16200014560201b60201c565b6200014d60201b60201c565b80600960006101000a81548173ffffffffffffffffffffffffffffffffffffffff021916908373ffffffffffffffffffffffffffffffffffffffff16021790555050620003b9565b600033905090565b6000600660009054906101000a900473ffffffffffffffffffffffffffffffffffffffff16905081600660006101000a81548173ffffffffffffffffffffffffffffffffffffffff021916908373ffffffffffffffffffffffffffffffffffffffff1602179055508173ffffffffffffffffffffffffffffffffffffffff168173ffffffffffffffffffffffffffffffffffffffff167f8be0079c531659141344cd1fd0a4f28419497f9722a3daafe3b4186f6b6457e060405160405180910390a35050565b82805462000221906200033a565b90600052602060002090601f01602090048101928262000245576000855562000291565b82601f106200026057805160ff191683800117855562000291565b8280016001018555821562000291579182015b828111156200029057825182559160200191906001019062000273565b5b509050620002a09190620002a4565b5090565b5b80821115620002bf576000816000905550600101620002a5565b5090565b600081519050620002d4816200039f565b92915050565b600060208284031215620002ed57600080fd5b6000620002fd84828501620002c3565b91505092915050565b600062000313826200031a565b9050919050565b600073ffffffffffffffffffffffffffffffffffffffff82169050919050565b600060028204905060018216806200035357607f821691505b602082108114156200036a576200036962000370565b5b50919050565b7f4e487b7100000000000000000000000000000000000000000000000000000000600052602260045260246000fd5b620003aa8162000306565b8114620003b657600080fd5b50565b61385680620003c96000396000f3fe608060405234801561001057600080fd5b50600436106101e55760003560e01c806394fa90eb1161010f578063c9009107116100a2578063e985e9c511610071578063e985e9c51461058b578063eaf21a0c146105bb578063ebdfbb30146105eb578063f2fde38b1461061b576101e5565b8063c900910714610503578063caa0f92a1461051f578063daa17f491461053d578063e44d311b1461055b576101e5565b8063b47cc556116100de578063b47cc5561461047f578063b88d4fde1461049b578063bbcad527146104b7578063c87b56dd146104d3576101e5565b806394fa90eb146103f957806395d89b4114610429578063a22cb46514610447578063aa4c4cc114610463576101e5565b80633c768d0e116101875780636921821111610156578063692182111461038557806370a08231146103a1578063715018a6146103d15780638da5cb5b146103db576101e5565b80633c768d0e146102ed57806342842e0e1461031d57806355f804b3146103395780636352211e14610355576101e5565b8063095ea7b3116101c3578063095ea7b31461026857806323b872dd146102845780632a55205a146102a05780632edd8df6146102d1576101e5565b806301ffc9a7146101ea57806306fdde031461021a578063081812fc14610238575b600080fd5b61020460048036038101906101ff91906127b3565b610637565b6040516102119190612d51565b60405180910390f35b610222610719565b60405161022f9190612d6c565b60405180910390f35b610252600480360381019061024d91906128c1565b6107ab565b60405161025f9190612cc1565b60405180910390f35b610282600480360381019061027d9190612777565b6107f1565b005b61029e60048036038101906102999190612671565b610909565b005b6102ba60048036038101906102b5919061293e565b610969565b6040516102c8929190612d28565b60405180910390f35b6102eb60048036038101906102e691906128ea565b610a25565b005b610307600480360381019061030291906128c1565b610a59565b6040516103149190612cc1565b60405180910390f35b61033760048036038101906103329190612671565b610a8c565b005b610353600480360381019061034e9190612805565b610aac565b005b61036f600480360381019061036a91906128c1565b610ace565b60405161037c9190612cc1565b60405180910390f35b61039f600480360381019061039a9190612846565b610b55565b005b6103bb60048036038101906103b6919061260c565b610cfa565b6040516103c89190612fec565b60405180910390f35b6103d9610db2565b005b6103e3610dc6565b6040516103f09190612cc1565b60405180910390f35b610413600480360381019061040e91906128c1565b610df0565b6040516104209190612fec565b60405180910390f35b610431610e08565b60405161043e9190612d6c565b60405180910390f35b610461600480360381019061045c919061273b565b610e9a565b005b61047d6004803603810190610478919061293e565b610eb0565b005b6104996004803603810190610494919061260c565b610ed4565b005b6104b560048036038101906104b091906126c0565b610f20565b005b6104d160048036038101906104cc91906128c1565b610f82565b005b6104ed60048036038101906104e891906128c1565b611094565b6040516104fa9190612d6c565b60405180910390f35b61051d6004803603810190610518919061293e565b6110fc565b005b610527611165565b6040516105349190612fec565b60405180910390f35b61054561116f565b6040516105529190612cc1565b60405180910390f35b610575600480360381019061057091906128c1565b611195565b6040516105829190612fec565b60405180910390f35b6105a560048036038101906105a09190612635565b6111ad565b6040516105b29190612d51565b60405180910390f35b6105d560048036038101906105d091906128c1565b611241565b6040516105e29190612d6c565b60405180910390f35b610605600480360381019061060091906128c1565b6112e1565b6040516106129190612fec565b60405180910390f35b6106356004803603810190610630919061260c565b6112f9565b005b60007f80ac58cd000000000000000000000000000000000000000000000000000000007bffffffffffffffffffffffffffffffffffffffffffffffffffffffff1916827bffffffffffffffffffffffffffffffffffffffffffffffffffffffff1916148061070257507f5b5e139f000000000000000000000000000000000000000000000000000000007bffffffffffffffffffffffffffffffffffffffffffffffffffffffff1916827bffffffffffffffffffffffffffffffffffffffffffffffffffffffff1916145b8061071257506107118261137d565b5b9050919050565b6060600080546107289061323c565b80601f01602080910402602001604051908101604052809291908181526020018280546107549061323c565b80156107a15780601f10610776576101008083540402835291602001916107a1565b820191906000526020600020905b81548152906001019060200180831161078457829003601f168201915b5050505050905090565b60006107b6826113e7565b6004600083815260200190815260200160002060009054906101000a900473ffffffffffffffffffffffffffffffffffffffff169050919050565b60006107fc82610ace565b90508073ffffffffffffffffffffffffffffffffffffffff168373ffffffffffffffffffffffffffffffffffffffff16141561086d576040517f08c379a000000000000000000000000000000000000000000000000000000000815260040161086490612f8c565b60405180910390fd5b8073ffffffffffffffffffffffffffffffffffffffff1661088c611432565b73ffffffffffffffffffffffffffffffffffffffff1614806108bb57506108ba816108b5611432565b6111ad565b5b6108fa576040517f08c379a00000000000000000000000000000000000000000000000000000000081526004016108f190612fac565b60405180910390fd5b610904838361143a565b505050565b61091a610914611432565b826114f3565b610959576040517f08c379a000000000000000000000000000000000000000000000000000000000815260040161095090612dcc565b60405180910390fd5b610964838383611588565b505050565b60008061097584611882565b6109b4576040517f08c379a00000000000000000000000000000000000000000000000000000000081526004016109ab90612f0c565b60405180910390fd5b600e600085815260200190815260200160002060009054906101000a900473ffffffffffffffffffffffffffffffffffffffff1691506000600d60008681526020019081526020016000205490506127108185610a119190613102565b610a1b91906130d1565b9150509250929050565b610a2d6118c3565b80600c60008481526020019081526020016000209080519060200190610a54929190612430565b505050565b600e6020528060005260406000206000915054906101000a900473ffffffffffffffffffffffffffffffffffffffff1681565b610aa783838360405180602001604052806000815250610f20565b505050565b610ab46118c3565b80600a9080519060200190610aca929190612430565b5050565b600080610ada83611941565b9050600073ffffffffffffffffffffffffffffffffffffffff168173ffffffffffffffffffffffffffffffffffffffff161415610b4c576040517f08c379a0000000000000000000000000000000000000000000000000000000008152600401610b4390612f4c565b60405180910390fd5b80915050919050565b600854821115610b9a576040517f08c379a0000000000000000000000000000000000000000000000000000000008152600401610b9190612f6c565b60405180910390fd5b60005b81811015610cf357600060076000815480929190610bba9061329f565b919050559050610bca338261197e565b84600b60008381526020019081526020016000208190555085600c60008381526020019081526020016000209080519060200190610c09929190612430565b5083600d60008381526020019081526020016000208190555033600e600083815260200190815260200160002060006101000a81548173ffffffffffffffffffffffffffffffffffffffff021916908373ffffffffffffffffffffffffffffffffffffffff16021790555082600f6000838152602001908152602001600020819055503373ffffffffffffffffffffffffffffffffffffffff16817feb964cda86eda73065cc8f3488f31b0102b6749265eb159ed39b859dcd432124888888604051610cd793929190612d8e565b60405180910390a3508080610ceb9061329f565b915050610b9d565b5050505050565b60008073ffffffffffffffffffffffffffffffffffffffff168273ffffffffffffffffffffffffffffffffffffffff161415610d6b576040517f08c379a0000000000000000000000000000000000000000000000000000000008152600401610d6290612ecc565b60405180910390fd5b600360008373ffffffffffffffffffffffffffffffffffffffff1673ffffffffffffffffffffffffffffffffffffffff168152602001908152602001600020549050919050565b610dba6118c3565b610dc46000611b9c565b565b6000600660009054906101000a900473ffffffffffffffffffffffffffffffffffffffff16905090565b600f6020528060005260406000206000915090505481565b606060018054610e179061323c565b80601f0160208091040260200160405190810160405280929190818152602001828054610e439061323c565b8015610e905780601f10610e6557610100808354040283529160200191610e90565b820191906000526020600020905b815481529060010190602001808311610e7357829003601f168201915b5050505050905090565b610eac610ea5611432565b8383611c62565b5050565b610eb86118c3565b80600b6000848152602001908152602001600020819055505050565b610edc6118c3565b80600960006101000a81548173ffffffffffffffffffffffffffffffffffffffff021916908373ffffffffffffffffffffffffffffffffffffffff16021790555050565b610f31610f2b611432565b836114f3565b610f70576040517f08c379a0000000000000000000000000000000000000000000000000000000008152600401610f6790612dcc565b60405180910390fd5b610f7c84848484611dcf565b50505050565b600960009054906101000a900473ffffffffffffffffffffffffffffffffffffffff1673ffffffffffffffffffffffffffffffffffffffff163373ffffffffffffffffffffffffffffffffffffffff1614611012576040517f08c379a000000000000000000000000000000000000000000000000000000000815260040161100990612fcc565b60405180910390fd5b6000600f60008381526020019081526020016000205411611068576040517f08c379a000000000000000000000000000000000000000000000000000000000815260040161105f90612eac565b60405180910390fd5b600f6000828152602001908152602001600020600081548092919061108c90613212565b919050555050565b606061109f826113e7565b60006110a9611e2b565b905060008151116110c957604051806020016040528060008152506110f4565b806110d384611f0f565b6040516020016110e4929190612c9d565b6040516020818303038152906040525b915050919050565b6111046118c3565b600854811115611149576040517f08c379a000000000000000000000000000000000000000000000000000000000815260040161114090612f6c565b60405180910390fd5b80600d6000848152602001908152602001600020819055505050565b6000600754905090565b600960009054906101000a900473ffffffffffffffffffffffffffffffffffffffff1681565b600b6020528060005260406000206000915090505481565b6000600560008473ffffffffffffffffffffffffffffffffffffffff1673ffffffffffffffffffffffffffffffffffffffff16815260200190815260200160002060008373ffffffffffffffffffffffffffffffffffffffff1673ffffffffffffffffffffffffffffffffffffffff16815260200190815260200160002060009054906101000a900460ff16905092915050565b600c60205280600052604060002060009150905080546112609061323c565b80601f016020809104026020016040519081016040528092919081815260200182805461128c9061323c565b80156112d95780601f106112ae576101008083540402835291602001916112d9565b820191906000526020600020905b8154815290600101906020018083116112bc57829003601f168201915b505050505081565b600d6020528060005260406000206000915090505481565b6113016118c3565b600073ffffffffffffffffffffffffffffffffffffffff168173ffffffffffffffffffffffffffffffffffffffff161415611371576040517f08c379a000000000000000000000000000000000000000000000000000000000815260040161136890612e0c565b60405180910390fd5b61137a81611b9c565b50565b60007f01ffc9a7000000000000000000000000000000000000000000000000000000007bffffffffffffffffffffffffffffffffffffffffffffffffffffffff1916827bffffffffffffffffffffffffffffffffffffffffffffffffffffffff1916149050919050565b6113f081611882565b61142f576040517f08c379a000000000000000000000000000000000000000000000000000000000815260040161142690612f4c565b60405180910390fd5b50565b600033905090565b816004600083815260200190815260200160002060006101000a81548173ffffffffffffffffffffffffffffffffffffffff021916908373ffffffffffffffffffffffffffffffffffffffff160217905550808273ffffffffffffffffffffffffffffffffffffffff166114ad83610ace565b73ffffffffffffffffffffffffffffffffffffffff167f8c5be1e5ebec7d5bd14f71427d1e84f3dd0314c0f7b2291e5b200ac8c7c3b92560405160405180910390a45050565b6000806114ff83610ace565b90508073ffffffffffffffffffffffffffffffffffffffff168473ffffffffffffffffffffffffffffffffffffffff161480611541575061154081856111ad565b5b8061157f57508373ffffffffffffffffffffffffffffffffffffffff16611567846107ab565b73ffffffffffffffffffffffffffffffffffffffff16145b91505092915050565b8273ffffffffffffffffffffffffffffffffffffffff166115a882610ace565b73ffffffffffffffffffffffffffffffffffffffff16146115fe576040517f08c379a00000000000000000000000000000000000000000000000000000000081526004016115f590612e2c565b60405180910390fd5b600073ffffffffffffffffffffffffffffffffffffffff168273ffffffffffffffffffffffffffffffffffffffff16141561166e576040517f08c379a000000000000000000000000000000000000000000000000000000000815260040161166590612e6c565b60405180910390fd5b61167b8383836001612033565b8273ffffffffffffffffffffffffffffffffffffffff1661169b82610ace565b73ffffffffffffffffffffffffffffffffffffffff16146116f1576040517f08c379a00000000000000000000000000000000000000000000000000000000081526004016116e890612e2c565b60405180910390fd5b6004600082815260200190815260200160002060006101000a81549073ffffffffffffffffffffffffffffffffffffffff02191690556001600360008573ffffffffffffffffffffffffffffffffffffffff1673ffffffffffffffffffffffffffffffffffffffff168152602001908152602001600020600082825403925050819055506001600360008473ffffffffffffffffffffffffffffffffffffffff1673ffffffffffffffffffffffffffffffffffffffff16815260200190815260200160002060008282540192505081905550816002600083815260200190815260200160002060006101000a81548173ffffffffffffffffffffffffffffffffffffffff021916908373ffffffffffffffffffffffffffffffffffffffff160217905550808273ffffffffffffffffffffffffffffffffffffffff168473ffffffffffffffffffffffffffffffffffffffff167fddf252ad1be2c89b69c2b068fc378daa952ba7f163c4a11628f55a4df523b3ef60405160405180910390a461187d8383836001612039565b505050565b60008073ffffffffffffffffffffffffffffffffffffffff166118a483611941565b73ffffffffffffffffffffffffffffffffffffffff1614159050919050565b6118cb611432565b73ffffffffffffffffffffffffffffffffffffffff166118e9610dc6565b73ffffffffffffffffffffffffffffffffffffffff161461193f576040517f08c379a000000000000000000000000000000000000000000000000000000000815260040161193690612f2c565b60405180910390fd5b565b60006002600083815260200190815260200160002060009054906101000a900473ffffffffffffffffffffffffffffffffffffffff169050919050565b600073ffffffffffffffffffffffffffffffffffffffff168273ffffffffffffffffffffffffffffffffffffffff1614156119ee576040517f08c379a00000000000000000000000000000000000000000000000000000000081526004016119e590612eec565b60405180910390fd5b6119f781611882565b15611a37576040517f08c379a0000000000000000000000000000000000000000000000000000000008152600401611a2e90612e4c565b60405180910390fd5b611a45600083836001612033565b611a4e81611882565b15611a8e576040517f08c379a0000000000000000000000000000000000000000000000000000000008152600401611a8590612e4c565b60405180910390fd5b6001600360008473ffffffffffffffffffffffffffffffffffffffff1673ffffffffffffffffffffffffffffffffffffffff16815260200190815260200160002060008282540192505081905550816002600083815260200190815260200160002060006101000a81548173ffffffffffffffffffffffffffffffffffffffff021916908373ffffffffffffffffffffffffffffffffffffffff160217905550808273ffffffffffffffffffffffffffffffffffffffff16600073ffffffffffffffffffffffffffffffffffffffff167fddf252ad1be2c89b69c2b068fc378daa952ba7f163c4a11628f55a4df523b3ef60405160405180910390a4611b98600083836001612039565b5050565b6000600660009054906101000a900473ffffffffffffffffffffffffffffffffffffffff16905081600660006101000a81548173ffffffffffffffffffffffffffffffffffffffff021916908373ffffffffffffffffffffffffffffffffffffffff1602179055508173ffffffffffffffffffffffffffffffffffffffff168173ffffffffffffffffffffffffffffffffffffffff167f8be0079c531659141344cd1fd0a4f28419497f9722a3daafe3b4186f6b6457e060405160405180910390a35050565b8173ffffffffffffffffffffffffffffffffffffffff168373ffffffffffffffffffffffffffffffffffffffff161415611cd1576040517f08c379a0000000000000000000000000000000000000000000000000000000008152600401611cc890612e8c565b60405180910390fd5b80600560008573ffffffffffffffffffffffffffffffffffffffff1673ffffffffffffffffffffffffffffffffffffffff16815260200190815260200160002060008473ffffffffffffffffffffffffffffffffffffffff1673ffffffffffffffffffffffffffffffffffffffff16815260200190815260200160002060006101000a81548160ff0219169083151502179055508173ffffffffffffffffffffffffffffffffffffffff168373ffffffffffffffffffffffffffffffffffffffff167f17307eab39ab6107e8899845ad3d59bd9653f200f220920489ca2b5937696c3183604051611dc29190612d51565b60405180910390a3505050565b611dda848484611588565b611de68484848461203f565b611e25576040517f08c379a0000000000000000000000000000000000000000000000000000000008152600401611e1c90612dec565b60405180910390fd5b50505050565b60606000600a8054611e3c9061323c565b905011611e7e576040518060400160405280602081526020017f68747470733a2f2f6170692e6578616d706c652e636f6d2f7469636b6574732f815250611f0a565b600a8054611e8b9061323c565b80601f0160208091040260200160405190810160405280929190818152602001828054611eb79061323c565b8015611f045780601f10611ed957610100808354040283529160200191611f04565b820191906000526020600020905b815481529060010190602001808311611ee757829003601f168201915b50505050505b905090565b606060006001611f1e846121d6565b01905060008167ffffffffffffffff811115611f63577f4e487b7100000000000000000000000000000000000000000000000000000000600052604160045260246000fd5b6040519080825280601f01601f191660200182016040528015611f955781602001600182028036833780820191505090505b509050600082602001820190505b600115612028578080600190039150507f3031323334353637383961626364656600000000000000000000000000000000600a86061a8153600a8581612012577f4e487b7100000000000000000000000000000000000000000000000000000000600052601260045260246000fd5b049450600085141561202357612028565b611fa3565b819350505050919050565b50505050565b50505050565b60006120608473ffffffffffffffffffffffffffffffffffffffff1661240d565b156121c9578373ffffffffffffffffffffffffffffffffffffffff1663150b7a02612089611432565b8786866040518563ffffffff1660e01b81526004016120ab9493929190612cdc565b602060405180830381600087803b1580156120c557600080fd5b505af19250505080156120f657506040513d601f19601f820116820180604052508101906120f391906127dc565b60015b612179573d8060008114612126576040519150601f19603f3d011682016040523d82523d6000602084013e61212b565b606091505b50600081511415612171576040517f08c379a000000000000000000000000000000000000000000000000000000000815260040161216890612dec565b60405180910390fd5b805181602001fd5b63150b7a0260e01b7bffffffffffffffffffffffffffffffffffffffffffffffffffffffff1916817bffffffffffffffffffffffffffffffffffffffffffffffffffffffff1916149150506121ce565b600190505b949350505050565b600080600090507a184f03e93ff9f4daa797ed6e38ed64bf6a1f010000000000000000831061225a577a184f03e93ff9f4daa797ed6e38ed64bf6a1f0100000000000000008381612250577f4e487b7100000000000000000000000000000000000000000000000000000000600052601260045260246000fd5b0492506040810190505b6d04ee2d6d415b85acef810000000083106122bd576d04ee2d6d415b85acef810000000083816122b3577f4e487b7100000000000000000000000000000000000000000000000000000000600052601260045260246000fd5b0492506020810190505b662386f26fc10000831061231257662386f26fc100008381612308577f4e487b7100000000000000000000000000000000000000000000000000000000600052601260045260246000fd5b0492506010810190505b6305f5e1008310612361576305f5e1008381612357577f4e487b7100000000000000000000000000000000000000000000000000000000600052601260045260246000fd5b0492506008810190505b61271083106123ac5761271083816123a2577f4e487b7100000000000000000000000000000000000000000000000000000000600052601260045260246000fd5b0492506004810190505b606483106123f557606483816123eb577f4e487b7100000000000000000000000000000000000000000000000000000000600052601260045260246000fd5b0492506002810190505b600a8310612404576001810190505b80915050919050565b6000808273ffffffffffffffffffffffffffffffffffffffff163b119050919050565b82805461243c9061323c565b90600052602060002090601f01602090048101928261245e57600085556124a5565b82601f1061247757805160ff19168380011785556124a5565b828001600101855582156124a5579182015b828111156124a4578251825591602001919060010190612489565b5b5090506124b291906124b6565b5090565b5b808211156124cf5760008160009055506001016124b7565b5090565b60006124e66124e18461302c565b613007565b9050828152602081018484840111156124fe57600080fd5b6125098482856131d0565b509392505050565b600061252461251f8461305d565b613007565b90508281526020810184848401111561253c57600080fd5b6125478482856131d0565b509392505050565b60008135905061255e816137c4565b92915050565b600081359050612573816137db565b92915050565b600081359050612588816137f2565b92915050565b60008151905061259d816137f2565b92915050565b600082601f8301126125b457600080fd5b81356125c48482602086016124d3565b91505092915050565b600082601f8301126125de57600080fd5b81356125ee848260208601612511565b91505092915050565b60008135905061260681613809565b92915050565b60006020828403121561261e57600080fd5b600061262c8482850161254f565b91505092915050565b6000806040838503121561264857600080fd5b60006126568582860161254f565b92505060206126678582860161254f565b9150509250929050565b60008060006060848603121561268657600080fd5b60006126948682870161254f565b93505060206126a58682870161254f565b92505060406126b6868287016125f7565b9150509250925092565b600080600080608085870312156126d657600080fd5b60006126e48782880161254f565b94505060206126f58782880161254f565b9350506040612706878288016125f7565b925050606085013567ffffffffffffffff81111561272357600080fd5b61272f878288016125a3565b91505092959194509250565b6000806040838503121561274e57600080fd5b600061275c8582860161254f565b925050602061276d85828601612564565b9150509250929050565b6000806040838503121561278a57600080fd5b60006127988582860161254f565b92505060206127a9858286016125f7565b9150509250929050565b6000602082840312156127c557600080fd5b60006127d384828501612579565b91505092915050565b6000602082840312156127ee57600080fd5b60006127fc8482850161258e565b91505092915050565b60006020828403121561281757600080fd5b600082013567ffffffffffffffff81111561283157600080fd5b61283d848285016125cd565b91505092915050565b6000806000806080858703121561285c57600080fd5b600085013567ffffffffffffffff81111561287657600080fd5b612882878288016125cd565b9450506020612893878288016125f7565b93505060406128a4878288016125f7565b92505060606128b5878288016125f7565b91505092959194509250565b6000602082840312156128d357600080fd5b60006128e1848285016125f7565b91505092915050565b600080604083850312156128fd57600080fd5b600061290b858286016125f7565b925050602083013567ffffffffffffffff81111561292857600080fd5b612934858286016125cd565b9150509250929050565b6000806040838503121561295157600080fd5b600061295f858286016125f7565b9250506020612970858286016125f7565b9150509250929050565b6129838161315c565b82525050565b6129928161316e565b82525050565b60006129a38261308e565b6129ad81856130a4565b93506129bd8185602086016131df565b6129c6816133a4565b840191505092915050565b60006129dc82613099565b6129e681856130b5565b93506129f68185602086016131df565b6129ff816133a4565b840191505092915050565b6000612a1582613099565b612a1f81856130c6565b9350612a2f8185602086016131df565b80840191505092915050565b6000612a48602d836130b5565b9150612a53826133b5565b604082019050919050565b6000612a6b6032836130b5565b9150612a7682613404565b604082019050919050565b6000612a8e6026836130b5565b9150612a9982613453565b604082019050919050565b6000612ab16025836130b5565b9150612abc826134a2565b604082019050919050565b6000612ad4601c836130b5565b9150612adf826134f1565b602082019050919050565b6000612af76024836130b5565b9150612b028261351a565b604082019050919050565b6000612b1a6019836130b5565b9150612b2582613569565b602082019050919050565b6000612b3d601b836130b5565b9150612b4882613592565b602082019050919050565b6000612b606029836130b5565b9150612b6b826135bb565b604082019050919050565b6000612b836020836130b5565b9150612b8e8261360a565b602082019050919050565b6000612ba66015836130b5565b9150612bb182613633565b602082019050919050565b6000612bc96020836130b5565b9150612bd48261365c565b602082019050919050565b6000612bec6018836130b5565b9150612bf782613685565b602082019050919050565b6000612c0f601f836130b5565b9150612c1a826136ae565b602082019050919050565b6000612c326021836130b5565b9150612c3d826136d7565b604082019050919050565b6000612c55603d836130b5565b9150612c6082613726565b604082019050919050565b6000612c786034836130b5565b9150612c8382613775565b604082019050919050565b612c97816131c6565b82525050565b6000612ca98285612a0a565b9150612cb58284612a0a565b91508190509392505050565b6000602082019050612cd6600083018461297a565b92915050565b6000608082019050612cf1600083018761297a565b612cfe602083018661297a565b612d0b6040830185612c8e565b8181036060830152612d1d8184612998565b905095945050505050565b6000604082019050612d3d600083018561297a565b612d4a6020830184612c8e565b9392505050565b6000602082019050612d666000830184612989565b92915050565b60006020820190508181036000830152612d8681846129d1565b905092915050565b60006060820190508181036000830152612da881866129d1565b9050612db76020830185612c8e565b612dc46040830184612c8e565b949350505050565b60006020820190508181036000830152612de581612a3b565b9050919050565b60006020820190508181036000830152612e0581612a5e565b9050919050565b60006020820190508181036000830152612e2581612a81565b9050919050565b60006020820190508181036000830152612e4581612aa4565b9050919050565b60006020820190508181036000830152612e6581612ac7565b9050919050565b60006020820190508181036000830152612e8581612aea565b9050919050565b60006020820190508181036000830152612ea581612b0d565b9050919050565b60006020820190508181036000830152612ec581612b30565b9050919050565b60006020820190508181036000830152612ee581612b53565b9050919050565b60006020820190508181036000830152612f0581612b76565b9050919050565b60006020820190508181036000830152612f2581612b99565b9050919050565b60006020820190508181036000830152612f4581612bbc565b9050919050565b60006020820190508181036000830152612f6581612bdf565b9050919050565b60006020820190508181036000830152612f8581612c02565b9050919050565b60006020820190508181036000830152612fa581612c25565b9050919050565b60006020820190508181036000830152612fc581612c48565b9050919050565b60006020820190508181036000830152612fe581612c6b565b9050919050565b60006020820190506130016000830184612c8e565b92915050565b6000613011613022565b905061301d828261326e565b919050565b6000604051905090565b600067ffffffffffffffff82111561304757613046613375565b5b613050826133a4565b9050602081019050919050565b600067ffffffffffffffff82111561307857613077613375565b5b613081826133a4565b9050602081019050919050565b600081519050919050565b600081519050919050565b600082825260208201905092915050565b600082825260208201905092915050565b600081905092915050565b60006130dc826131c6565b91506130e7836131c6565b9250826130f7576130f6613317565b5b828204905092915050565b600061310d826131c6565b9150613118836131c6565b9250817fffffffffffffffffffffffffffffffffffffffffffffffffffffffffffffffff0483118215151615613151576131506132e8565b5b828202905092915050565b6000613167826131a6565b9050919050565b60008115159050919050565b60007fffffffff0000000000000000000000000000000000000000000000000000000082169050919050565b600073ffffffffffffffffffffffffffffffffffffffff82169050919050565b6000819050919050565b82818337600083830152505050565b60005b838110156131fd5780820151818401526020810190506131e2565b8381111561320c576000848401525b50505050565b600061321d826131c6565b91506000821415613231576132306132e8565b5b600182039050919050565b6000600282049050600182168061325457607f821691505b6020821081141561326857613267613346565b5b50919050565b613277826133a4565b810181811067ffffffffffffffff8211171561329657613295613375565b5b80604052505050565b60006132aa826131c6565b91507fffffffffffffffffffffffffffffffffffffffffffffffffffffffffffffffff8214156132dd576132dc6132e8565b5b600182019050919050565b7f4e487b7100000000000000000000000000000000000000000000000000000000600052601160045260246000fd5b7f4e487b7100000000000000000000000000000000000000000000000000000000600052601260045260246000fd5b7f4e487b7100000000000000000000000000000000000000000000000000000000600052602260045260246000fd5b7f4e487b7100000000000000000000000000000000000000000000000000000000600052604160045260246000fd5b6000601f19601f8301169050919050565b7f4552433732313a2063616c6c6572206973206e6f7420746f6b656e206f776e6560008201527f72206f7220617070726f76656400000000000000000000000000000000000000602082015250565b7f4552433732313a207472616e7366657220746f206e6f6e20455243373231526560008201527f63656976657220696d706c656d656e7465720000000000000000000000000000602082015250565b7f4f776e61626c653a206e6577206f776e657220697320746865207a65726f206160008201527f6464726573730000000000000000000000000000000000000000000000000000602082015250565b7f4552433732313a207472616e736665722066726f6d20696e636f72726563742060008201527f6f776e6572000000000000000000000000000000000000000000000000000000602082015250565b7f4552433732313a20746f6b656e20616c7265616479206d696e74656400000000600082015250565b7f4552433732313a207472616e7366657220746f20746865207a65726f2061646460008201527f7265737300000000000000000000000000000000000000000000000000000000602082015250565b7f4552433732313a20617070726f766520746f2063616c6c657200000000000000600082015250565b7f416c6c207469636b6574732068617665206265656e20736f6c642e0000000000600082015250565b7f4552433732313a2061646472657373207a65726f206973206e6f74206120766160008201527f6c6964206f776e65720000000000000000000000000000000000000000000000602082015250565b7f4552433732313a206d696e7420746f20746865207a65726f2061646472657373600082015250565b7f546f6b656e20646f6573206e6f742065786973742e0000000000000000000000600082015250565b7f4f776e61626c653a2063616c6c6572206973206e6f7420746865206f776e6572600082015250565b7f4552433732313a20696e76616c696420746f6b656e2049440000000000000000600082015250565b7f436f6d6d697373696f6e206d75737420626520313025206f72206c6573732e00600082015250565b7f4552433732313a20617070726f76616c20746f2063757272656e74206f776e6560008201527f7200000000000000000000000000000000000000000000000000000000000000602082015250565b7f4552433732313a20617070726f76652063616c6c6572206973206e6f7420746f60008201527f6b656e206f776e6572206f7220617070726f76656420666f7220616c6c000000602082015250565b7f4f6e6c7920746865206d61726b6574706c6163652063616e206465637265617360008201527f6520617661696c61626c65207469636b6574732e000000000000000000000000602082015250565b6137cd8161315c565b81146137d857600080fd5b50565b6137e48161316e565b81146137ef57600080fd5b50565b6137fb8161317a565b811461380657600080fd5b50565b613812816131c6565b811461381d57600080fd5b5056fea26469706673582212205de1f53a6e2c47cf6bd32fc68febdf6c3d3a2bf8abae6138297cc4cd9fc12c0d64736f6c63430008010033",
  "devdoc": {
    "kind": "dev",
    "methods": {
      "approve(address,uint256)": {
        "details": "See {IERC721-approve}."
      },
      "balanceOf(address)": {
        "details": "See {IERC721-balanceOf}."
      },
      "getApproved(uint256)": {
        "details": "See {IERC721-getApproved}."
      },
      "isApprovedForAll(address,address)": {
        "details": "See {IERC721-isApprovedForAll}."
      },
      "name()": {
        "details": "See {IERC721Metadata-name}."
      },
      "owner()": {
        "details": "Returns the address of the current owner."
      },
      "ownerOf(uint256)": {
        "details": "See {IERC721-ownerOf}."
      },
      "renounceOwnership()": {
        "details": "Leaves the contract without owner. It will not be possible to call `onlyOwner` functions anymore. Can only be called by the current owner. NOTE: Renouncing ownership will leave the contract without an owner, thereby removing any functionality that is only available to the owner."
      },
      "royaltyInfo(uint256,uint256)": {
        "details": "Returns how much royalty is owed and to whom, based on a sale price that may be denominated in any unit of exchange. The royalty amount is denominated and should be paid in that same unit of exchange."
      },
      "safeTransferFrom(address,address,uint256)": {
        "details": "See {IERC721-safeTransferFrom}."
      },
      "safeTransferFrom(address,address,uint256,bytes)": {
        "details": "See {IERC721-safeTransferFrom}."
      },
      "setApprovalForAll(address,bool)": {
        "details": "See {IERC721-setApprovalForAll}."
      },
      "supportsInterface(bytes4)": {
        "details": "See {IERC165-supportsInterface}."
      },
      "symbol()": {
        "details": "See {IERC721Metadata-symbol}."
      },
      "tokenURI(uint256)": {
        "details": "See {IERC721Metadata-tokenURI}."
      },
      "transferFrom(address,address,uint256)": {
        "details": "See {IERC721-transferFrom}."
      },
      "transferOwnership(address)": {
        "details": "Transfers ownership of the contract to a new account (`newOwner`). Can only be called by the current owner."
      }
    },
    "version": 1
  },
  "userdoc": {
    "kind": "user",
    "methods": {},
    "version": 1
  },
  "storageLayout": {
    "storage": [
      {
        "astId": 157,
        "contract": "contracts/ConcertTicket.sol:ConcertTicket",
        "label": "_name",
        "offset": 0,
        "slot": "0",
        "type": "t_string_storage"
      },
      {
        "astId": 159,
        "contract": "contracts/ConcertTicket.sol:ConcertTicket",
        "label": "_symbol",
        "offset": 0,
        "slot": "1",
        "type": "t_string_storage"
      },
      {
        "astId": 163,
        "contract": "contracts/ConcertTicket.sol:ConcertTicket",
        "label": "_owners",
        "offset": 0,
        "slot": "2",
        "type": "t_mapping(t_uint256,t_address)"
      },
      {
        "astId": 167,
        "contract": "contracts/ConcertTicket.sol:ConcertTicket",
        "label": "_balances",
        "offset": 0,
        "slot": "3",
        "type": "t_mapping(t_address,t_uint256)"
      },
      {
        "astId": 171,
        "contract": "contracts/ConcertTicket.sol:ConcertTicket",
        "label": "_tokenApprovals",
        "offset": 0,
        "slot": "4",
        "type": "t_mapping(t_uint256,t_address)"
      },
      {
        "astId": 177,
        "contract": "contracts/ConcertTicket.sol:ConcertTicket",
        "label": "_operatorApprovals",
        "offset": 0,
        "slot": "5",
        "type": "t_mapping(t_address,t_mapping(t_address,t_bool))"
      },
      {
        "astId": 7,
        "contract": "contracts/ConcertTicket.sol:ConcertTicket",
        "label": "_owner",
        "offset": 0,
        "slot": "6",
        "type": "t_address"
      },
      {
        "astId": 2859,
        "contract": "contracts/ConcertTicket.sol:ConcertTicket",
        "label": "nextTokenId",
        "offset": 0,
        "slot": "7",
        "type": "t_uint256"
      },
      {
        "astId": 2862,
        "contract": "contracts/ConcertTicket.sol:ConcertTicket",
        "label": "maxCommission",
        "offset": 0,
        "slot": "8",
        "type": "t_uint256"
      },
      {
        "astId": 2864,
        "contract": "contracts/ConcertTicket.sol:ConcertTicket",
        "label": "marketplaceAddress",
        "offset": 0,
        "slot": "9",
        "type": "t_address"
      },
      {
        "astId": 2866,
        "contract": "contracts/ConcertTicket.sol:ConcertTicket",
        "label": "_customBaseURI",
        "offset": 0,
        "slot": "10",
        "type": "t_string_storage"
      },
      {
        "astId": 2870,
        "contract": "contracts/ConcertTicket.sol:ConcertTicket",
        "label": "ticketPrices",
        "offset": 0,
        "slot": "11",
        "type": "t_mapping(t_uint256,t_uint256)"
      },
      {
        "astId": 2874,
        "contract": "contracts/ConcertTicket.sol:ConcertTicket",
        "label": "ticketNames",
        "offset": 0,
        "slot": "12",
        "type": "t_mapping(t_uint256,t_string_storage)"
      },
      {
        "astId": 2878,
        "contract": "contracts/ConcertTicket.sol:ConcertTicket",
        "label": "ticketCommissions",
        "offset": 0,
        "slot": "13",
        "type": "t_mapping(t_uint256,t_uint256)"
      },
      {
        "astId": 2882,
        "contract": "contracts/ConcertTicket.sol:ConcertTicket",
        "label": "royaltyReceivers",
        "offset": 0,
        "slot": "14",
        "type": "t_mapping(t_uint256,t_address)"
      },
      {
        "astId": 2886,
        "contract": "contracts/ConcertTicket.sol:ConcertTicket",
        "label": "numOfTickets",
        "offset": 0,
        "slot": "15",
        "type": "t_mapping(t_uint256,t_uint256)"
      }
    ],
    "types": {
      "t_address": {
        "encoding": "inplace",
        "label": "address",
        "numberOfBytes": "20"
      },
      "t_bool": {
        "encoding": "inplace",
        "label": "bool",
        "numberOfBytes": "1"
      },
      "t_mapping(t_address,t_bool)": {
        "encoding": "mapping",
        "key": "t_address",
        "label": "mapping(address => bool)",
        "numberOfBytes": "32",
        "value": "t_bool"
      },
      "t_mapping(t_address,t_mapping(t_address,t_bool))": {
        "encoding": "mapping",
        "key": "t_address",
        "label": "mapping(address => mapping(address => bool))",
        "numberOfBytes": "32",
        "value": "t_mapping(t_address,t_bool)"
      },
      "t_mapping(t_address,t_uint256)": {
        "encoding": "mapping",
        "key": "t_address",
        "label": "mapping(address => uint256)",
        "numberOfBytes": "32",
        "value": "t_uint256"
      },
      "t_mapping(t_uint256,t_address)": {
        "encoding": "mapping",
        "key": "t_uint256",
        "label": "mapping(uint256 => address)",
        "numberOfBytes": "32",
        "value": "t_address"
      },
      "t_mapping(t_uint256,t_string_storage)": {
        "encoding": "mapping",
        "key": "t_uint256",
        "label": "mapping(uint256 => string)",
        "numberOfBytes": "32",
        "value": "t_string_storage"
      },
      "t_mapping(t_uint256,t_uint256)": {
        "encoding": "mapping",
        "key": "t_uint256",
        "label": "mapping(uint256 => uint256)",
        "numberOfBytes": "32",
        "value": "t_uint256"
      },
      "t_string_storage": {
        "encoding": "bytes",
        "label": "string",
        "numberOfBytes": "32"
      },
      "t_uint256": {
        "encoding": "inplace",
        "label": "uint256",
        "numberOfBytes": "32"
      }
    }
  }
}