{
  "address": "0x1bb7FE106e2d01a8Aa5ba1bd02Bfba383720CB7d",
  "abi": [
    {
      "inputs": [
        {
          "internalType": "address",
          "name": "concertTicketAddress",
          "type": "address"
        }
      ],
      "stateMutability": "nonpayable",
      "type": "constructor"
    },
    {
      "anonymous": false,
      "inputs": [
        {
          "indexed": true,
          "internalType": "address",
          "name": "previousOwner",
          "type": "address"
        },
        {
          "indexed": true,
          "internalType": "address",
          "name": "newOwner",
          "type": "address"
        }
      ],
      "name": "OwnershipTransferred",
      "type": "event"
    },
    {
      "anonymous": false,
      "inputs": [
        {
          "indexed": true,
          "internalType": "uint256",
          "name": "tokenId",
          "type": "uint256"
        },
        {
          "indexed": true,
          "internalType": "address",
          "name": "buyer",
          "type": "address"
        },
        {
          "indexed": false,
          "internalType": "uint256",
          "name": "price",
          "type": "uint256"
        }
      ],
      "name": "TicketSold",
      "type": "event"
    },
    {
      "inputs": [
        {
          "internalType": "uint256",
          "name": "tokenId",
          "type": "uint256"
        }
      ],
      "name": "buyTicket",
      "outputs": [],
      "stateMutability": "payable",
      "type": "function"
    },
    {
      "inputs": [],
      "name": "concertTicket",
      "outputs": [
        {
          "internalType": "contract ConcertTicket",
          "name": "",
          "type": "address"
        }
      ],
      "stateMutability": "view",
      "type": "function"
    },
    {
      "inputs": [
        {
          "internalType": "address",
          "name": "",
          "type": "address"
        },
        {
          "internalType": "address",
          "name": "",
          "type": "address"
        },
        {
          "internalType": "uint256",
          "name": "",
          "type": "uint256"
        },
        {
          "internalType": "bytes",
          "name": "",
          "type": "bytes"
        }
      ],
      "name": "onERC721Received",
      "outputs": [
        {
          "internalType": "bytes4",
          "name": "",
          "type": "bytes4"
        }
      ],
      "stateMutability": "pure",
      "type": "function"
    },
    {
      "inputs": [],
      "name": "owner",
      "outputs": [
        {
          "internalType": "address",
          "name": "",
          "type": "address"
        }
      ],
      "stateMutability": "view",
      "type": "function"
    },
    {
      "inputs": [],
      "name": "platformFeePercentage",
      "outputs": [
        {
          "internalType": "uint256",
          "name": "",
          "type": "uint256"
        }
      ],
      "stateMutability": "view",
      "type": "function"
    },
    {
      "inputs": [],
      "name": "renounceOwnership",
      "outputs": [],
      "stateMutability": "nonpayable",
      "type": "function"
    },
    {
      "inputs": [
        {
          "internalType": "address",
          "name": "newOwner",
          "type": "address"
        }
      ],
      "name": "transferOwnership",
      "outputs": [],
      "stateMutability": "nonpayable",
      "type": "function"
    }
  ],
  "transactionHash": "0x8bfd93d3c23bb7f9ee43fad9ae8477fe71a9263a9a2f528102af6925583535db",
  "args": [
    "0x32e92368045c116e36A4E03714236E09e111c632"
  ],
  "numDeployments": 1,
  "solcInputHash": "c8ec677125a1cf2aec643dc315b8d5ed",
  "bytecode": "0x60806040523480156200001157600080fd5b5060405162000ff238038062000ff283398181016040528101906200003791906200018b565b620000576200004b620000a860201b60201c565b620000b060201b60201c565b80600160006101000a81548173ffffffffffffffffffffffffffffffffffffffff021916908373ffffffffffffffffffffffffffffffffffffffff16021790555061012c6002819055505062000205565b600033905090565b60008060009054906101000a900473ffffffffffffffffffffffffffffffffffffffff169050816000806101000a81548173ffffffffffffffffffffffffffffffffffffffff021916908373ffffffffffffffffffffffffffffffffffffffff1602179055508173ffffffffffffffffffffffffffffffffffffffff168173ffffffffffffffffffffffffffffffffffffffff167f8be0079c531659141344cd1fd0a4f28419497f9722a3daafe3b4186f6b6457e060405160405180910390a35050565b6000815190506200018581620001eb565b92915050565b6000602082840312156200019e57600080fd5b6000620001ae8482850162000174565b91505092915050565b6000620001c482620001cb565b9050919050565b600073ffffffffffffffffffffffffffffffffffffffff82169050919050565b620001f681620001b7565b81146200020257600080fd5b50565b610ddd80620002156000396000f3fe6080604052600436106100705760003560e01c8063715018a61161004e578063715018a6146100f95780638da5cb5b14610110578063cdd78cfc1461013b578063f2fde38b1461016657610070565b8063150b7a021461007557806354796e2b146100b257806367dd74ca146100dd575b600080fd5b34801561008157600080fd5b5061009c600480360381019061009791906108a4565b61018f565b6040516100a99190610a6d565b60405180910390f35b3480156100be57600080fd5b506100c76101a4565b6040516100d49190610a88565b60405180910390f35b6100f760048036038101906100f29190610924565b6101ca565b005b34801561010557600080fd5b5061010e6105a3565b005b34801561011c57600080fd5b506101256105b7565b6040516101329190610a1b565b60405180910390f35b34801561014757600080fd5b506101506105e0565b60405161015d9190610b03565b60405180910390f35b34801561017257600080fd5b5061018d60048036038101906101889190610852565b6105e6565b005b600063150b7a0260e01b905095945050505050565b600160009054906101000a900473ffffffffffffffffffffffffffffffffffffffff1681565b6000600160009054906101000a900473ffffffffffffffffffffffffffffffffffffffff1673ffffffffffffffffffffffffffffffffffffffff1663e44d311b836040518263ffffffff1660e01b81526004016102279190610b03565b60206040518083038186803b15801561023f57600080fd5b505afa158015610253573d6000803e3d6000fd5b505050506040513d601f19601f82011682018060405250810190610277919061094d565b905060006127106002548361028c9190610b60565b6102969190610b2f565b9050600081836102a69190610bba565b9050823410156102eb576040517f08c379a00000000000000000000000000000000000000000000000000000000081526004016102e290610ae3565b60405180910390fd5b6000600160009054906101000a900473ffffffffffffffffffffffffffffffffffffffff1673ffffffffffffffffffffffffffffffffffffffff16636352211e866040518263ffffffff1660e01b81526004016103489190610b03565b60206040518083038186803b15801561036057600080fd5b505afa158015610374573d6000803e3d6000fd5b505050506040513d601f19601f82011682018060405250810190610398919061087b565b9050600160009054906101000a900473ffffffffffffffffffffffffffffffffffffffff1673ffffffffffffffffffffffffffffffffffffffff166342842e0e8233886040518463ffffffff1660e01b81526004016103f993929190610a36565b600060405180830381600087803b15801561041357600080fd5b505af1158015610427573d6000803e3d6000fd5b505050506104336105b7565b73ffffffffffffffffffffffffffffffffffffffff166108fc849081150290604051600060405180830381858888f19350505050158015610478573d6000803e3d6000fd5b508073ffffffffffffffffffffffffffffffffffffffff166108fc839081150290604051600060405180830381858888f193505050501580156104bf573d6000803e3d6000fd5b50600160009054906101000a900473ffffffffffffffffffffffffffffffffffffffff1673ffffffffffffffffffffffffffffffffffffffff1663bbcad527866040518263ffffffff1660e01b815260040161051b9190610b03565b600060405180830381600087803b15801561053557600080fd5b505af1158015610549573d6000803e3d6000fd5b505050503373ffffffffffffffffffffffffffffffffffffffff16857fbce6612c87f6b5711225ffc4b9f920148cd399de49ba10137fe0d3c531333841866040516105949190610b03565b60405180910390a35050505050565b6105ab61066a565b6105b560006106e8565b565b60008060009054906101000a900473ffffffffffffffffffffffffffffffffffffffff16905090565b60025481565b6105ee61066a565b600073ffffffffffffffffffffffffffffffffffffffff168173ffffffffffffffffffffffffffffffffffffffff16141561065e576040517f08c379a000000000000000000000000000000000000000000000000000000000815260040161065590610aa3565b60405180910390fd5b610667816106e8565b50565b6106726107ac565b73ffffffffffffffffffffffffffffffffffffffff166106906105b7565b73ffffffffffffffffffffffffffffffffffffffff16146106e6576040517f08c379a00000000000000000000000000000000000000000000000000000000081526004016106dd90610ac3565b60405180910390fd5b565b60008060009054906101000a900473ffffffffffffffffffffffffffffffffffffffff169050816000806101000a81548173ffffffffffffffffffffffffffffffffffffffff021916908373ffffffffffffffffffffffffffffffffffffffff1602179055508173ffffffffffffffffffffffffffffffffffffffff168173ffffffffffffffffffffffffffffffffffffffff167f8be0079c531659141344cd1fd0a4f28419497f9722a3daafe3b4186f6b6457e060405160405180910390a35050565b600033905090565b6000813590506107c381610d79565b92915050565b6000815190506107d881610d79565b92915050565b60008083601f8401126107f057600080fd5b8235905067ffffffffffffffff81111561080957600080fd5b60208301915083600182028301111561082157600080fd5b9250929050565b60008135905061083781610d90565b92915050565b60008151905061084c81610d90565b92915050565b60006020828403121561086457600080fd5b6000610872848285016107b4565b91505092915050565b60006020828403121561088d57600080fd5b600061089b848285016107c9565b91505092915050565b6000806000806000608086880312156108bc57600080fd5b60006108ca888289016107b4565b95505060206108db888289016107b4565b94505060406108ec88828901610828565b935050606086013567ffffffffffffffff81111561090957600080fd5b610915888289016107de565b92509250509295509295909350565b60006020828403121561093657600080fd5b600061094484828501610828565b91505092915050565b60006020828403121561095f57600080fd5b600061096d8482850161083d565b91505092915050565b61097f81610bee565b82525050565b61098e81610c00565b82525050565b61099d81610c56565b82525050565b60006109b0602683610b1e565b91506109bb82610cd8565b604082019050919050565b60006109d3602083610b1e565b91506109de82610d27565b602082019050919050565b60006109f6601583610b1e565b9150610a0182610d50565b602082019050919050565b610a1581610c4c565b82525050565b6000602082019050610a306000830184610976565b92915050565b6000606082019050610a4b6000830186610976565b610a586020830185610976565b610a656040830184610a0c565b949350505050565b6000602082019050610a826000830184610985565b92915050565b6000602082019050610a9d6000830184610994565b92915050565b60006020820190508181036000830152610abc816109a3565b9050919050565b60006020820190508181036000830152610adc816109c6565b9050919050565b60006020820190508181036000830152610afc816109e9565b9050919050565b6000602082019050610b186000830184610a0c565b92915050565b600082825260208201905092915050565b6000610b3a82610c4c565b9150610b4583610c4c565b925082610b5557610b54610ca9565b5b828204905092915050565b6000610b6b82610c4c565b9150610b7683610c4c565b9250817fffffffffffffffffffffffffffffffffffffffffffffffffffffffffffffffff0483118215151615610baf57610bae610c7a565b5b828202905092915050565b6000610bc582610c4c565b9150610bd083610c4c565b925082821015610be357610be2610c7a565b5b828203905092915050565b6000610bf982610c2c565b9050919050565b60007fffffffff0000000000000000000000000000000000000000000000000000000082169050919050565b600073ffffffffffffffffffffffffffffffffffffffff82169050919050565b6000819050919050565b6000610c6182610c68565b9050919050565b6000610c7382610c2c565b9050919050565b7f4e487b7100000000000000000000000000000000000000000000000000000000600052601160045260246000fd5b7f4e487b7100000000000000000000000000000000000000000000000000000000600052601260045260246000fd5b7f4f776e61626c653a206e6577206f776e657220697320746865207a65726f206160008201527f6464726573730000000000000000000000000000000000000000000000000000602082015250565b7f4f776e61626c653a2063616c6c6572206973206e6f7420746865206f776e6572600082015250565b7f496e73756666696369656e74207061796d656e742e0000000000000000000000600082015250565b610d8281610bee565b8114610d8d57600080fd5b50565b610d9981610c4c565b8114610da457600080fd5b5056fea264697066735822122031a53d8d73b84111851e0eb331123b1a39effa825cbcd697787c4d7a3e454aac64736f6c63430008010033",
  "devdoc": {
    "kind": "dev",
    "methods": {
      "owner()": {
        "details": "Returns the address of the current owner."
      },
      "renounceOwnership()": {
        "details": "Leaves the contract without owner. It will not be possible to call `onlyOwner` functions anymore. Can only be called by the current owner. NOTE: Renouncing ownership will leave the contract without an owner, thereby removing any functionality that is only available to the owner."
      },
      "transferOwnership(address)": {
        "details": "Transfers ownership of the contract to a new account (`newOwner`). Can only be called by the current owner."
      }
    },
    "version": 1
  },
  "userdoc": {
    "kind": "user",
    "methods": {},
    "version": 1
  },
  "storageLayout": {
    "storage": [
      {
        "astId": 7,
        "contract": "contracts/Marketplace.sol:Marketplace",
        "label": "_owner",
        "offset": 0,
        "slot": "0",
        "type": "t_address"
      },
      {
        "astId": 3182,
        "contract": "contracts/Marketplace.sol:Marketplace",
        "label": "concertTicket",
        "offset": 0,
        "slot": "1",
        "type": "t_contract(ConcertTicket)3169"
      },
      {
        "astId": 3184,
        "contract": "contracts/Marketplace.sol:Marketplace",
        "label": "platformFeePercentage",
        "offset": 0,
        "slot": "2",
        "type": "t_uint256"
      }
    ],
    "types": {
      "t_address": {
        "encoding": "inplace",
        "label": "address",
        "numberOfBytes": "20"
      },
      "t_contract(ConcertTicket)3169": {
        "encoding": "inplace",
        "label": "contract ConcertTicket",
        "numberOfBytes": "20"
      },
      "t_uint256": {
        "encoding": "inplace",
        "label": "uint256",
        "numberOfBytes": "32"
      }
    }
  }
}